:020000040000FA
:10000000F80B0020513A0000F53A0000856101002C
:10001000A5610100C561010005620100E561010003
:10002000000000000000000000000000F960000077
:10003000F53A0000000000006F700000F53A000083
:10004000F53A0000F53A0000000000005B72000085
:1000500000000000F53A0000000000000000000071
:10006000F53A0000F53A0000F53A0000F53A0000D4
:10007000F53A0000F53A0000F53A0000F53A0000C4
:10008000F53A0000F53A0000000000000000000012
:10009000F53A0000F53A0000000000000000000002
:1000A000F53A0000F53A0000F53A0000F53A000094
:1000B000F53A0000F53A0000F53A0000F53A000084
:1000C000F53A0000F53A0000F53A0000F53A000074
:1000D000F53A000000000000F53A000000000000C2
:1000E000F53A000000000000F53A0000F53A000083
:1000F00000000000F53A000000000000F53A0000A2
:10010000000000000000000000000000F53A0000C0
:10011000F53A000000000000F53A0000F53A000052
:1001200000000000F53A00000000000000000000A0
:1001300000000000000000000000000000000000BF
:1001400000000000000000000000000000000000AF
:10015000F53A000000015F5F00000000FE0B0000A8
:1001600089610000000400000000000000000000A1
:1001700000000000000000000000000020B6002089
:100180000000000001015F5F030100001F0100008B
:10019000F502000000200000000000000100000047
:1001A000010000000000000000000000B84F002027
:1001B0000000000070000000749901008000000041
:1001C000000F000001000000E50300000100000036
:1001D00001015F5F000100001F000000FD3600000C
:1001E0000007000000000000030000000100000004
:1001F00000000000000000001016002000000000B9
:100200008000000070000000400000007F990100A5
:10021000600000000107000001000000012D000047
:100220000100000001015F5F010100001F010000EB
:100230005D1B00002007000000000000000000001F
:10024000010000000000000000000000B86F002066
:10025000000000009D99010070000000020F0000E6
:1002600001000000D90600000100000001015F5FED
:10027000040100001F010000F52B00000005000034
:10028000000000000000000001000000000000006D
:1002900000000000D876002000000000C299010094
:1002A000400000000507000001000000AD2900002B
:0402B0000100000049
:1002C00038B500250648294600F58054D4F80024A6
:1002D000C4F8045415F0FFFFC4F8005438BD00BF43
:1002E000D87B0020024BD3F8043403600020704711
:1002F000D88B002008B500F037F9B0B90B4818F0DA
:1003000061FF0B4818F05EFF05F0B8FD58B90948C9
:1003100018F058FF00F0C2F900F0CEF928B9BDE896
:10032000084009F0E5BA6FF0830008BD3C2C0000DE
:100330004B2C0000692C000013B511460022CDE9BA
:10034000002242680346302A046844D194F82C20E5
:10035000022A18D01AB901F09AFB02B010BD1F484A
:100360002468D0F80404013ACDE90040072A2CD8CB
:10037000DFE802F004090D12171C21266A46184610
:1003800001F0A2FAE9E7184600F0E0FEE5E76A4668
:10039000184600F08AFFE0E76A46184600F00AFEB9
:1003A000DBE76A46184601F043F8D6E76A46184686
:1003B00001F062F9D1E76A46184601F0B8F9CCE7D6
:1003C0006A46184601F0B6F9C7E7054818F0FAFE84
:1003D0006FF08500C1E76FF08000BEE7D88B00208A
:1003E000802C00002DE9F04F056804469FB0002DD9
:1003F00040F0B2802022294602A815F06CFF0DF1D2
:100400004808202229460AA815F065FF302229460F
:10041000404615F060FFE26904F11C031F46B2B1CB
:100420000426E26A04F12C03EAB10425EEB96FF068
:10043000830630461FB0BDE8F08F002EF1D053F890
:10044000041D3246013E0029F7D01646E9E703268F
:10045000F5E7002DEAD053F8041D2A46013D002996
:10046000F7D01546E2E70325F5E7302342460021A1
:10047000606807F0B3FD3028D9D10121DFF8E090A2
:10048000CDE902800DF1080A04F1100B09F580583E
:100490008E42D8F800041DD10DF1280A53460021E0
:1004A00007EB850EBE4536D111B12E4BC3F80004C3
:1004B000A3683146C8F804340AAA2B4602A8FFF7FD
:1004C0003BFF00270646BD420AF1080A3CD1FFF770
:1004D000F7FEAEE75BF8043FC0F5A05203F1030C52
:1004E0002CF0030C944504D9FFF7EAFE6FF08C065C
:1004F0009FE700EB09026044C8F800046068CDE99A
:10050000001207F06BFD019A0099CAF80C00013146
:100510004AF8082FBCE757F804CFC0F5A05B0CF1F0
:10052000030222F003025A4503F1080306D809EB3F
:10053000000143E9021C10440121B3E70029D3D094
:10054000084BC3F80004CFE739465AE90223606834
:1005500007F04EFD0137B6E76FF0850669E700BF8B
:10056000D87B0020D88B002008B54FF449520021D9
:10057000024815F0B0FE002008BD00BF781D002025
:100580000023F7B50C6807460E461546019314BBC9
:1005900022B3146001A8FFF7A5FEA8B94FF4C96CF7
:1005A000104A0CFB04F3D158A646013471B94FF040
:1005B000010E02EB030C42F803E0019910331344DF
:1005C000CCE9011734602B6003B0F0BD082CE8D1F2
:1005D0006FF08400F8E76FF08800F5E76FF08600B1
:1005E000F2E700BF781D00200023F7B505680193EE
:1005F000013D072D036004D96FF08604204603B047
:10060000F0BD01A8FFF76EFE04460028F6D14FF4B6
:10061000C9635D430A4E73597719012BECD17A688F
:10062000019B9A42E8D105F110004FF4C7622146C0
:10063000304415F050FEC7E901447451DEE700BFB5
:10064000781D0020002373B54C1E072C0646154666
:10065000019303D96FF0880002B070BDC2B101A848
:10066000FFF740FE0028F7D14FF4C96202FB04F106
:10067000094B5C585A18012CECD19468B442E9D16A
:100680005468019A9442E5D1103119442960E3E796
:100690006FF08600E0E700BF781D002010B5044C25
:1006A0000F222046034915F0F1FD204610BD00BF82
:1006B00030B30020A52C000008B54FF402510448C7
:1006C00007F022FE034807F067FE002008BD00BFC8
:1006D000B0920020C59101006FF47A72F0B5036802
:1006E000044613448DB0032B7CD8DFE803F00228C6
:1006F0004C6B0369082B02D06FF080055FE08569C1
:10070000042DF9D10021406808AA07F067FC0828E9
:10071000F2D12B460221606806AA07F05FFC04288C
:10072000EAD16168314A63691160069ACDE9003205
:10073000DDE90823A06800F021F905463FE00369E0
:10074000082BD9D14569042DD6D10021406808AACB
:1007500007F044FC0828CFD12B460121606806AA87
:1007600007F03CFC0428C7D16168204A236A116065
:1007700005AACDE90132069B0093A068DDE90823B4
:1007800000F058F9D9E70369082BB5D1076A0C2F97
:10079000B2D10021406806AA07F020FC0828ABD19E
:1007A000DDE9062308AE0096A06800F095F905463D
:1007B00028B901463B463246606807F019FC2846D6
:1007C0000DB0F0BD0369082B96D10021406808AA3E
:1007D00007F004FC08288FD1DDE90823A06800F0A9
:1007E0008DF9AAE76FF08505E9E700BFE08F0020EB
:1007F000024603480B460068012107F0EFBB00BF2B
:10080000E08F0020024603480B460068002107F0F5
:10081000EFBB00BFE08F00201FB550EA0103144674
:100820001BD0CDE90120042203910E480DEB0201FB
:1008300015F02CFD08220C480DEB020115F026FDE9
:100840000A4B0B480B4AB4F5807F08BF1846054990
:1008500004B0BDE8104001F066BA6FF0860004B045
:1008600010BD00BF42B3002046B30020E48F00203B
:10087000FC8F00201492002030B5384B85B09D6A63
:10088000A8470369042B03D06FF0800005B030BD8A
:10089000A847334C8368A360A847037D01A823764B
:1008A00005F04BFA0028EFD1019BA26863609DF828
:1008B0000C3021465343029A2A48B2FBF3F22282BB
:1008C000294AE36001F0E2F90028DFD1254801F070
:1008D0000EFA002834D1A8470369042BD4D1A847C5
:1008E000224C8368A360A847037D01A8237605F006
:1008F00016FA0028C8D1019BA26863609DF80C30ED
:1009000021465343029A1A48B2FBF3F22282164A56
:10091000E36001F0BBF90028B8D1154801F0E7F910
:100920000028B3D0134818F04DFC114801F0F9F934
:100930000028ABD10E4805B0BDE8304001F0D7B972
:100940000D4818F03FFC074801F0EBF900289DD155
:10095000044801F0CCF90028BDD097E7C877000023
:100960005C1D0020FC8F00201C2C0000401D00207E
:10097000E48F0020DA2C0000B42C00002DE9F347AE
:100980001946DDE90A5652EA01030446104641D0F1
:10099000072E42D82246FFF73FFF30B9204B9B6815
:1009A000DB0705D56FF0840031E010F18C0F2ED1FC
:1009B000DFF86CA01B4F1C4B46F44036CAF80860A9
:1009C000B4F5807F18BF1F460026DFF86080DFF88F
:1009D0006090CAF80450B5F5007F2C4628BF4FF44C
:1009E000007412482146FFF703FF2346524649464A
:1009F0003846CDE9006801F0AAF940B9DAF80830C4
:100A00002D1B23F44033CAF808302644E3D102B04A
:100A1000BDE8F0876FF08600F9E76FF08500F6E734
:100A200014920020E48F0020FC8F002014900020FE
:100A300042B300202DE9F74F194652EA01038046E0
:100A40000C9E1046DDF8389039D04246FFF7E4FEA0
:100A5000054638BB1B4B1C68B44230D30D9BA41B0E
:100A60009C4228BF1C46184F184BDFF864A0B8F50D
:100A7000807F18BF1F46DFF85C80C9F80040B4F5DE
:100A8000007FA34628BF4FF4007B33465A465146A9
:100A90003846CDF8008001F063FA054630B10023F6
:100AA000C9F80030284603B0BDE8F08F59464046EB
:100AB000FFF7A8FEB4EB0B045E44E0D1F2E76FF061
:100AC0008605EFE714920020E48F0020FC8F0020C1
:100AD00042B300201490002038B505461946104650
:100AE0002A46049CFFF798FE28B9034B1A689B68B6
:100AF000C4E90022A36038BD1492002010B504465A
:100B0000194610462246FFF787FE80B9084B9B68BE
:100B1000DB070AD40748084B0849B4F5807F08BFB3
:100B20001846BDE8104001F00BBA6FF0840010BD0C
:100B300014920020FC8F0020E48F002042B300209C
:100B4000F8B51D46036804465B680E46174698478D
:100B50000B4BC0F3410013F8202063680699E0684E
:100B60001D442368B1FBF2F200FB065039469B6935
:100B700098470028B4BF6FF091000020F8BD00BF77
:100B8000302C00002DE9F3470A9C07469146002CC3
:100B900057D0C26840681E183B6802FB01665B685C
:100BA0009847294BC0F3410013F82080B6FBF8FAB0
:100BB00008FB0AFA564524D03B68012250465B697F
:100BC00001A99847002804DA6FF0910002B0BDE84F
:100BD000F087A6EB0A03E218904501AA02EB030195
:100BE00004D92246484615F051FB08E0A8EB06055B
:100BF00055442A46484615F049FB641B02D10020A3
:100C0000E4E700253B68A0455B690DD8B4FBF8FA22
:100C100009EB05015246A81998470028D4DB08FBC8
:100C20000AF2A41AEBD015443B6801225B6901A9C2
:100C3000701998470028C7DB224601A909EB050077
:100C4000D1E72046C2E700BF302C00002DE9F04379
:100C5000904600220446ADF29C6D04AD28460391F7
:100C600006AE11461F4600F016FFE26A40F203117D
:100C7000304600F010FF4FF4C762002118A815F0AD
:100C80002AFB1C22002109A815F025FB1E220021A9
:100C90000DF1420015F01FFB4FF6F87241F201030F
:100CA000B2EBC70F4FF6FF72ADF820304FEAC70323
:100CB00038BF134608A80121ADF8223001F0A3FF88
:100CC00010A84FF4804101F09EFF4FF49053DFF8DD
:100CD00088902146226A03803346C0F8149015F0AC
:100CE000C5FE044640BB494618A808F03BFC044634
:100CF00010BB96E80C0040F2011118A816F0B1FCE8
:100D00000446C8B9042340F2032103AA18A816F028
:100D10009FFC044680B92A4618A908A816F0DDFBF6
:100D2000044648B9DDF8B8364246009395E803001A
:100D30003B4615F0F5FD044618A816F051FB96E861
:100D4000030015F070FD95E8030015F06CFD2046DA
:100D50000DF29C6DBDE8F083090100082DE9F04F0C
:100D600000259BB004A8049507F09CF94FF01808E3
:100D70000646DFF8C090304FB54201D1002024E094
:100D800008FB05FA049B03EB0A02116949454FD1A0
:100D90000021946808A853F80A2000F07CFE202265
:100DA000002112A815F097FA0DF10E02049B019292
:100DB00007AA53440092D3F814B0202106AB05AA29
:100DC0000AA8D84720B16FF092001BB0BDE8F08FA1
:100DD0004FF6F8714FF6FF72099B1593069B8B42F5
:100DE00088BF1346ADF84A30079B089A1793BDF8A1
:100DF0000E30ADF84830049B53441B69139313F035
:100E0000FF0308BF1A4648235C4304F124000DEB9E
:100E100003013C4414923844202215F037FA20464E
:100E2000059A0AA915F032FA059B2362012363642F
:100E30000135A1E701010080209200207FB56B46BB
:100E4000154683E8030012B300240646146003A885
:100E5000039407F027F9039BA04209D01A4652F8E1
:100E6000181B8E4208D1D3E90221931E0B4306D1F1
:100E70006FF08B0004B070BD13460134ECE74821DD
:100E8000044B002001FB02331B6A2B60F2E76FF07A
:100E90008600EFE7209200202DE9F04F87B09846BA
:100EA000109B012807461446DDF844A0009304D99E
:100EB0006FF0860007B0BDE8F08F482545433C4EF3
:100EC00073195B6C002B6DD0002AF1D0D2E902B906
:100ED000002303A8039307F0DFF80023039A984246
:100EE0004FD0114651F80CCBE3454CD1D2E9011358
:100EF00039B1002253F8320081453FD103EBC203E0
:100F00005B6805F12401202231442046019315F04D
:100F1000BDF95A46494604A800F0BDFD049962682F
:100F2000A1600599019BE160D1B221B922F0FF02D5
:100F300042F0010262601946204601F064FE482337
:100F400003FB07631A6A009B9A422ED8B8F1000F80
:100F5000AED0BAF1000FABD0236970195B0415D580
:100F600040F20313994511D042464946009BCDF803
:100F700040A007B0BDE8F04FFFF768BE01329142D4
:100F8000B8D10023BDE70A460133A8E70146404631
:100F900015F07CF9482303FB0766336A0020CAF882
:100FA000003087E76FF08B0084E76FF0890081E7FE
:100FB000209200202DE9F0474FF0000AD0F8009071
:100FC00088B0B9F82C700DF1180806460D46D2E924
:100FD00000214046CDF814A000F05DFD042F14D18F
:100FE0002B1D03936B6802932B680193F3680093A6
:100FF000B368D9F8042098E8030008F0B7FB04466A
:10100000002846D0C5F804A039E0B7F5827F0FD19B
:101010002B1D03936B6802932B680193F368009375
:10102000B368D9F8042098E8030008F087F8E6E7E9
:1010300027F48073B3F5017FD9F8081011D12E6819
:101040000120316005AA3146FFF79AFA0446B0B98B
:10105000B7F5017F4FD0B7F5417F5AD06FF08504C7
:101060000DE0012005AAFFF7EDFA40F204739F425C
:10107000044610D040F604039F4204D0E8B1204655
:1010800008B0BDE8F0872E68D9F808303360002832
:1010900057D00024F3E72E68D9F8083033600028D1
:1010A000EDD1D5E90212059805F10C0316F093F87D
:1010B000044650B3C5F80CA0E1E740F204439F4258
:1010C00012D001D80646C3E740F204639F4228D0FD
:1010D000C4D840F204539F42C0D1D6E90212059809
:1010E00016F041F80446CAE705982B1DD5E9001211
:1010F00016F0FFFA83E7D9F80430059898E806005F
:1011000016F019F804460028C3D03046FFF76CFAF1
:10111000B5E7D9F80430059898E8060016F017F8F6
:10112000F0E72B1D01936B68059800932B68D6E9B7
:10113000021216F036F804460028AAD000236B608D
:101140009DE7059815F0E9FF0446DEE72DE9F04339
:101150004FF00009056885B0AE8D8046022E0F461F
:10116000CDF8089012D10B1D01934B6800930B68CA
:10117000D0E90212686815F016FE044600284CD02B
:10118000C7F80490204605B0BDE8F083B6F5817F2E
:1011900009D1436900938168D0E90323686815F099
:1011A00013FE0446EEE740F202239E42A96811D1E5
:1011B0003E680320316002AA3146FFF7E1F9044698
:1011C0000028DFD16968029815F07CFD044620B341
:1011D000304667E0032002AAFFF734FA40F20253D8
:1011E0009E42044629D040F202639E4217D040F24C
:1011F00002739E420DD00028C4D140F202439E42A9
:1012000038D003D840F202339E4228D06FF08504D4
:10121000B8E73E68AB68336038B30024B2E73E6895
:10122000AB6833600028ADD1D8E90212029815F0FE
:101230008EFD04460028A5D1CAE73E68AB6833603E
:1012400000289FD1D7E90212029807F10C0315F08C
:101250006DFD04460028BBD0C7F80C9092E70298B9
:10126000D8E9021215F04EFD9BE7029815F01FFD1C
:101270000446ADE7D8F808303D681B68039029465E
:1012800003202B6003AAFFF77BF9044600287FF4B4
:1012900079AFDDE9020115F0C0FD044600283FF4F6
:1012A00071AF2846FFF7A0F96CE72DE9F04F4FF03A
:1012B000000BD0F8009089B0B9F82CA00DF11808F7
:1012C00006460D46D2E900214046CDF814B000F0A4
:1012D000E2FBBAF1030F17D12B1D03936B68029346
:1012E0002B680193F3680093B368D9F8042098E859
:1012F000030015F07FFE044600285BD0C5F804B05B
:10130000204609B0BDE8F08F40F203139A450ED194
:101310007369029333690193F3680093B368D9F852
:10132000042098E8030015F07AFE0446E8E740F24E
:1013300003222AF480739342D9F8081019D12F6838
:101340000220396005AA3946FFF71AF90446002839
:10135000D6D140F203239A4551D040F203339A4547
:101360001FD198E80600D9F80430059815F0D8FD8B
:101370004CE0022005AAFFF765F940F203539A45B5
:10138000044628D040F203639A4515D040F2037317
:101390009A4509D00028B3D140F203439A453CD086
:1013A0002BD96FF08504ABE72F68D9F808303B6084
:1013B000002838D00024A3E72F68D9F808303B6014
:1013C00000289DD1D6E90212059815F0F3FD0446D8
:1013D000002895D11DE02F68D9F808303B6000281F
:1013E0008ED1D5E90212059805F10C0315F0B8FD70
:1013F000044670B1C5F80CB082E70746A9E7D9F8F2
:101400000430059898E8060015F07EFD0446002893
:10141000D0D03846FFF7E8F872E70598D6E902120F
:1014200015F08AFD81E7059815F009FD0446F0E7FF
:101430002DE9F04F4FF0000B07688DB0B7F82C8006
:101440000DF1280A06460D46D2E900215046CDF896
:1014500024B000F020FBB8F1050F1FD12B1D07931E
:101460006B6806932B680593F3680493B368039342
:101470007369029333690193BB6A00937A6807F139
:1014800018039AE8030007F001FF044600286AD019
:10149000C5F804B020460DB0BDE8F08F40F205134A
:1014A000984517D12B1D07936B6806932B680593FE
:1014B000F3680493B36803937369029333690193E8
:1014C000BB6A00937A6807F118039AE8030007F0F3
:1014D0003FFFDAE740F2052228F480739342B968AF
:1014E00010D1D5F800900520C9F8001009AA494686
:1014F000FFF746F804460028CCD140F20533984562
:1015000023D194E0052009AAFFF79CF840F60513C3
:101510009845044641D040F60523984525D040F62D
:101520000533984518D00028B4D140F205539845AA
:1015300000F095804ED840F20533984575D040F2C2
:10154000054398457FD04FF0000940F205239845A8
:101550005ED06FF085049DE7D5F80090BB68C9F8B0
:10156000003000286AD0002494E7D5F80090BB68CA
:10157000C9F8003000288DD1F36809980193B36849
:101580000093D5E9021205F10C0315F005FF04469E
:10159000002846D0C5F80CB07CE7D5F80090BB68B1
:1015A000C9F8003000287FF475AF05F10C030293F1
:1015B000EB6809980193AB680093D5E9041205F133
:1015C000140315F0B7FE044658B3C5F80CB0C5F8BF
:1015D00014B05FE740F20573984547D009D840F250
:1015E00005639845B5D1D7E90412099815F036FE80
:1015F0003AE040F605039845ABD12B1D01936B688B
:10160000099800932B68D6E9021215F067FE20E0D6
:101610007B6809989AE8060015F008FE0446002841
:10162000A1D04846FEF7E0FF34E74FF000099AE802
:1016300006007B68099815F005FEEFE7099815F09C
:10164000E6FD0446EDE709982B1DD5E9001216F0DA
:101650008AF80446002886D000236B601AE70998B0
:10166000D6E9021207F05AFF044613E70998D6E9B3
:10167000021215F00FFEF7E7F0B587B004AE076869
:1016800004460D46D2E90021304600F004FA40F24B
:101690000622BB8D934238D008D8062B17D0B3F55D
:1016A000837F25D06FF0850007B0F0BD40F2063291
:1016B0009342F7D16369029323690193E36800932E
:1016C000A3687A6896E8030015F013FDECE72B1D7C
:1016D00003936B6802932B680193E3680093A368FC
:1016E0007A6896E8030015F0C4FCE8B90020DBE74F
:1016F0006369029323690193E3680093A3687A689E
:1017000096E8030015F0CBFCCEE72B1D03936B6826
:1017100002932B680193E3680093A3687A6896E8C4
:10172000030015F0D0FCE0E700236B60BCE76FF02E
:101730008500704700232DE9F047D0F8008090B075
:10174000B8F82C5006AE07468A469146D2E90021E9
:101750003046059300F09FF9082D13D10AF10403D8
:101760000393DAF804300293DAF800300193FB684F
:101770000093BB68D8F8040096E8060016F04EF80F
:10178000044622E0B5F5847FD8F8081013D1DAF8C2
:1017900000500420296005AA2946FEF7F1FE044600
:1017A00098B9D8F80410059807F0DCFE0446002824
:1017B0007AD1002409E0042005AAFEF743FF04467D
:1017C00038B140F608139D425FD0204610B0BDE806
:1017D000F087B5F5C16F6BD017D8B5F5816F31D0F3
:1017E00008D8B5F5027F21D0B5F5427F24D06FF03F
:1017F0008504EAE7B5F5A16FF9D196E80C00B8F8D1
:101800002E10059815F02DFFBAE740F608039D420B
:1018100020D040F608139D423DD0B5F5E16FE6D1EA
:10182000DAE90012059815F042FEA9E7DAF800108F
:10183000059815F001FEA3E7D8F80C10059815F0EF
:1018400004FE9DE7B8F82E100598D7E9022315F09D
:10185000FFFE95E72022BF6801460DEB0200DAF893
:10186000005014F038FD3846D9F8041008AA00F0EA
:1018700015F904460028A8D13246059908A815F0A4
:101880002CFE069B04462B609FE7D8F80820DAF868
:1018900000301A608DE7DAF80050D8F80830059863
:1018A0002B6015F09DFD04462846FEF79DFE8CE753
:1018B000FB68B8F82E100193BB680598009396E872
:1018C0000C0007F0DBFE5BE72DE9F04357688FB0B3
:1018D00002ACD0F80080126806460D462046394614
:1018E00000F0D9F840F20152B8F82C30934271D090
:1018F00031D840F20122934260D00AD8012B6ED039
:1019000040F2011293427CD06FF085000FB0BDE829
:10191000F08340F20132934257D040F201429342A9
:10192000F2D1D6F808902022D6E90486002106A834
:101930002D6814F0D0FC3946484606AA00F0AEF8EF
:101940000028E3D123463246414606A815F08EF81A
:10195000029B2B60DAE740F60102934272D010D866
:1019600040F2016293425FD040F201729342CBD1C8
:101970002B1D0093D5E9002394E8030015F038F8F7
:101980005AE040F60112934261D040F601229342A0
:10199000BAD12022002106A814F09DFC3946B06877
:1019A00006AA2D6800F07AF80028AFD1214606A8D3
:1019B00015F08BFF0028A9D1029B66E02246D4E9EE
:1019C00000012D6816F08BF8C2E794E8030016F0CA
:1019D000A7F89BE794E8030014F025FF96E7202280
:1019E000002106A814F077FC94E8030006AA2D68ED
:1019F00014F044FF002889D1294606A800F077F8A2
:101A000084E72022002106A814F065FC2C683946E2
:101A1000204606AA00F042F800287FF477AF06A817
:101A200016F030F82146E8E72B1D0093D5E9002396
:101A300094E8030014F074FF08B9002066E700235F
:101A40006B6063E794E8030016F08BF85EE72022F2
:101A5000002106A814F03FFC0022B668114604A835
:101A60002D6800F018F83946304606AA00F016F83E
:101A700000287FF44BAF94E8030004AB06AA15F0EE
:101A800068F800287FF442AF049B2B60D5E7D1E9CA
:101A9000000107F05DBEC0E9002170472DE9F0416B
:101AA00088461546074688B0F0B1EAB12E466C4626
:101AB00020220021684614F00EFC0FCC0FC694E8DB
:101AC0000F0086E80F0000203B882B807B686B604E
:101AD000FB682B613B696B617B886B80BB68C5E9E8
:101AE000023808B0BDE8F0816FF08000F9E730B54A
:101AF00061B158B1D0E901230468D0E90405C1E916
:101B000003050020C1E900428B6030BD6FF080000A
:101B1000FBE7F0B585B06C4684E80300002403A819
:101B200016461F46039406F0BDFA2146009A039D0F
:101B3000814202D16FF08B000BE02B4653F8184B1B
:101B4000944208D100202B693360D5E90223C7E90C
:101B5000002305B0F0BD1D460131E9E7FEF78CBE5C
:101B600008B5036800209B689847002818BF6FF0ED
:101B7000910008BD0020704770B504460E46002550
:101B8000E368AB4201D8002070BD606806FB03002B
:101B900023682844DB69984710B9A3681D44EFE720
:101BA0006FF09100F0E72DE9F04F03688FB006AABF
:101BB00004460E46D3F80C8000F0F7FB00285FD1F6
:101BC0000BA800F0E6FE014600285CD1DDE9067AAC
:101BD000202206A8099D14F07EFB3146204606AA65
:101BE00000F02AFD00284BD1834681462368DB8A1A
:101BF0005B4515D8002D35D12946204603AA00F0B3
:101C00005CFC00283CD12946204603AA00F073FE64
:101C1000B0BB204600F058FE78B36FF083002FE091
:101C2000B3451CD05946204606AA00F0BEFB38BB7F
:101C3000069BBB420DD10BA800F0ABFE48B9079B39
:101C4000534506D9984528BF98465B1B0793099BC7
:101C500099445946204606AA00F0EEFC80B90BF1E3
:101C6000010BC3E743462A4639462046CDE900A981
:101C700000F097F920B9002FCBD1204600F080FB6F
:101C80000FB0BDE8F08F6FF08B00F9E770B50C4630
:101C90001646054640B339B332B3098A012923D920
:101CA000032921D0E38A0229E268A08A4FEA43137C
:101CB00007D0904218D80C200239083300FB0133BA
:101CC00007E0A2F11401C91A81420DD390420BD84A
:101CD0001433934208D818220021284614F0FBFA46
:101CE0000020C5E9004670BD6FF08600FBE737B500
:101CF000054600F08DFD044658B94FF08071284626
:101D000001AA00F0BCFB38B928460199FFF74BFF48
:101D10000446204603B030BD10F18C0F18BF0446B6
:101D2000F7E700F099BC10B58AB0144602AB01AADF
:101D300000F076FB40B9059B6360049B2360BDF80F
:101D40001830A3600AB010BD6FF08B00FAE72DE9E0
:101D5000F04393B00DF1280804468946154600214A
:101D6000202240461F461A9E14F0B5FA4FF6FF7324
:101D7000CDE9053325B96FF0860013B0BDE8F083D7
:101D8000AB68B3F1807FF6D2236849465A8A6B6804
:101D90002046013B1344524213406B6005AA434660
:101DA00000F03EFB002840F08580AB6805999A035F
:101DB00006D50D9AD5F804C062456ED10C900E93ED
:101DC00006914FF6FF73069A9A427CD121686B68A0
:101DD000898A8B42CFD807A9CDE9028106A9019152
:101DE000A9682046009105998A1A18BF0122494620
:101DF00000F0C1FB0028C0D1002F6CD120460A9909
:101E000007AA00F078FD002851D1069942462046E5
:101E100000F012FC0146002849D1DDE905539D423E
:101E200028BF1D4620462A4600F0DCFC00283ED193
:101E30004FF6FF72059B93420FD0069A93420CD047
:101E40009A4238BF1A462046691C00F0CBFC70BB92
:101E5000DDE905539D4238BF1D4623682046DA8AD6
:101E6000691C00F0BFFC10BB0A9B002B62D1002F45
:101E700060D0204600F084FA00287FF47EAF4FF651
:101E8000FF73059999423FF478AF069B99423FF45E
:101E900074AF2046FFF787FE6FE70E9B424643F084
:101EA000807320460E9300F0C7FB002889D06FF0A6
:101EB000830062E710F18C0F7FF45FAFAB68DB0348
:101EC0007FF55BAF7DE720460A9907AA00F0F5FA97
:101ED000002891D0EBE723685B8A5A1E3242E6D194
:101EE0007D1E1D445B421D400C9B9E42DFD82A464E
:101EF00031460D9800F041FD0028D8D11B9B424689
:101F0000CDE900532046334607A900F0C0F8002869
:101F1000CDD10C9B3E440A999E422046079D88BF26
:101F20000C9600F028FA294607900A9A204600F0FD
:101F300080FB63E7204600F0C7FC002899D0B6E795
:101F400013B5002301AA044600F06AFA28B9204616
:101F50000199FFF728FE02B010BD6FF08B00FAE781
:101F600070B58CB015461C4603AA04AB064600F0BB
:101F700057FA98B92A462146069800F0FEFC58B94F
:101F8000109B2246009330462B4604A900F05EF8D1
:101F9000002818BF6FF083000CB070BD6FF08B008D
:101FA000FAE72DE9F04786B01646DDE90E9703AA59
:101FB000054688469A4600F080FA044698B9059B83
:101FC000414633442846059300F0D5F906467FB1D3
:101FD00001464A462846CDE900A7039B00F0D4FB02
:101FE00028B16FF08304204606B0BDE8F0870127D2
:101FF000DDE903324A450AD2A9EB0201CDE900210D
:102000002846314600F0C0FB0028EAD101274246AD
:102010002846039900F00DFB4146284603AA039683
:1020200000F069FC044628B142463146284600F0DB
:1020300000FBD8E7B8F1000FD5D0002FD3D06B68E4
:102040003146DB68286898470446CCE72DE9FF4114
:102050000D461646096801AA04461F46DDF8288089
:1020600000F02BFA70B901994B1C0BD062686B68B9
:102070000A9755684246AC462068334404B0BDE830
:10208000F04160476FF0830004B0BDE8F0812DE9B6
:10209000F3471546DDE90AA90F469846116804463C
:1020A00000F069F96B687A689844A8EB0203CDE9FF
:1020B0000023064601463B68204600F065FB20BB36
:1020C0006368CDF800A0D3F808A04A4643463146DD
:1020D0002068D047C8B9EB686A68B9681A442368B1
:1020E0002046DB685B1A9B1ACDE9002331463B682A
:1020F00000F04AFB48B92B683BB131466368206861
:10210000DB6802B0BDE8F047184702B0BDE8F087D1
:1021100013B50C2404FB01F3416800948C68083368
:1021200041690068A04702B010BD436810B541691D
:1021300004461B690068984750B923681A8A022A26
:1021400006D96268A1681846BDE8104012691047B8
:1021500010BD008A022814BF03380020704708B55C
:10216000FFF7F7FF0C2300FB033303EB41100830AC
:1021700008BD2DE9F04F002405460F46904626463F
:102180004FF00C098BB0D5F800A05046FFF7E1FFE7
:10219000013086420ED300264FF02009D5F800A06A
:1021A000BAF816309E421DD3002088F800400BB0CC
:1021B000BDE8F08F09FB06F36A68CDF80090D2F80D
:1021C00004B039465046083302AAD8470028EED159
:1021D00002AB13F8012B01300C2884EA0204F8D179
:1021E0000136D0E76B6831465046D3F804B0FFF7AC
:1021F000B6FF02AA034639465046CDF80090D847AC
:102200000028D4D102AB13F8012B0130202884EA36
:102210000204F8D10136C1E737B5837B01685A1C47
:10222000D2B28273097E04469142416904BF0233EF
:102230008373012900F10D020DD8FFF79AFF40B911
:102240000822636800929D6861690346A2182068AD
:10225000A84703B030BD6FF08600FAE713B50C460F
:10226000114622790346012A09D1036862791B7E4F
:102270009A4214BF00206FF0830002B010BD022A02
:1022800004D11B68A2791B7E9A4202D16FF08300B1
:10229000F3E701290DD80DF10702FFF76AFF0028C7
:1022A000EBD162799DF807309A4218BF6FF0910028
:1022B000E3E76FF08600E0E70822F0B5436887B0F7
:1022C00000925C6800236A44054619460068A047EE
:1022D0000246002832D000264FF0FF3408226B68F7
:1022E00000925F6801210023286804AAB8470028EB
:1022F0003AD10122284604A9FFF7B0FF034600287F
:1023000032D1002E35D02A689DF81610127E9DF825
:102310000E00B2FA82F25209914218D1002914BF7C
:10232000022301231B1A18BF01231C462C61B4FA97
:1023300084F4002064096C6107B0F0BD284602A94E
:10234000FFF78CFF04460028C5D10126C6E790425E
:1023500005D1002814BF022201229142E5D1884212
:102360002CBF00230123E0E7002EDFD16FF08300B4
:10237000E2E70124DAE709B94069704780687047ED
:1023800010B50446FFF748FF70B963686169DB6800
:102390002068984740B9D4E904232046C4E90432B0
:1023A000BDE81040FFF7C1BE10BDF7B50668054691
:1023B0003046FFF7D4FE03462020696800904F683E
:1023C000304629691446B847064640B92868FFF7E1
:1023D000C0FE23680130834204D36FF09706304675
:1023E00003B0F0BD04F1140000F0D3FA0028F6D1D8
:1023F0002D68E268AB8A9A42EFD8A3689A42ECD380
:10240000D4E900372BB92846E98AFFF7A8FEB8427D
:10241000E3D83946E86800F0B0FA0028DFD0DCE7FE
:102420002DE9F0430746884691461C46002589B0B1
:102430003B68DB8AAB4202D86FF08B0616E06A4637
:1024400029463846FFF7B1FFB0B90C22414605A82E
:1024500016F041FE064668B9C9F8005034B16D4621
:102460000FCD0FC495E80F0084E80F00304609B087
:10247000BDE8F0830135DBE76FF08306F6E7F0B5E2
:1024800005460E461746002489B02B68DB8AA34216
:1024900002D86FF08B0009E06A4621462846FFF714
:1024A00084FF38B9049B1E4202D03C6009B0F0BDE5
:1024B0000134EAE76FF08300F8E773B506460C20B5
:1024C00000FB01F3716800904C6830683169083393
:1024D0001546A047044630B9336829681A8A9142E4
:1024E00004D36FF09704204602B070BDD868D5E9D8
:1024F000011200F042FA04460028F2D12B68012BA9
:1025000003D83068C18AFFF72AFE6B688342EAD09D
:10251000E7E7F7B50C2606FB01F3416800964F6824
:1025200008330169054600681446B847034630B9C8
:102530002B6821681A8A914204D36FF097031846DA
:1025400003B0F0BDD868D4E9011200F016FA0346D2
:102550000028F2D12268012A09D82A681046FFF71C
:10256000F8FDD18A00FB06664901083188196268C6
:102570008242E4D0E1E72DE9F04F05468B469146D3
:102580009846002789B0DDE9146A2868FFF7E1FD65
:102590000130874202D36FF08D0420E05246394665
:1025A0002846FFF78AFF044680BBDAF808209045EA
:1025B0002AD82B685946DB6837609B1A73600C2257
:1025C000C6F80C8006F1140013F060FE129BB46094
:1025D0003361DAF80830A3EB0803CAF808300026A4
:1025E0002B68DB8A9E4205D26A4631462846FFF7B1
:1025F000DCFE70B14FF6FF766FF08D042046139B22
:102600001E6009B0BDE8F08F0137BEE76FF08304AC
:10261000E5E705A800F0BDF948B1B9F1000F04D015
:10262000002C18BF6FF08D04E8E74FF00109013668
:10263000D6E702B18160704773B505680446284645
:10264000FFF78DFD03462020616800908E682846C4
:102650006169B04702B070BD70B58CB00546FFF738
:102660002BFE002861D16E696B6831461B692868B2
:1026700098470446002878D1B6FA86F16B68286836
:102680001B6949099847044600286ED12A6801262B
:10269000137EB3FA83F35B09AB73138AC5E90406AF
:1026A000022B14BF02230123AB6002232B73D18AB8
:1026B0001046FFF754FDD36821461B1A029001AA69
:1026C000284603930196FFF723FD044600284CD1CA
:1026D00006462B680290DB6803932B681846FFF7C9
:1026E00038FDB04223D8002C4BD12B681846FFF799
:1026F00030FDA04228D82022002104A813F0EBFDD1
:1027000000242B68DB8AA34232D82846FFF784FDD9
:1027100048BB6B686969DB6828689847044620BB3A
:10272000D5E90423C5E904321FE000269CE7198A95
:102730006A68022914BF0321002118463144126936
:10274000904701360443C8E71B8A2846022B14BF72
:102750000323002323440134214601AA0193FFF7F8
:10276000D7FC0028C1D06FF0830420460CB070BDA8
:102770002146284604AAFFF75FFF0028F3D1013461
:10278000BFE76FF09104F0E72DE9F04F044688466B
:1027900016469946C3B0DDE94CA51DB9284643B09D
:1027A000BDE8F08FB5F5807F2F4628BF4FF48077C6
:1027B00063680097D3F804B049465346206802AADC
:1027C000D8470028EBD163680097D3F808B041469A
:1027D0003346206802AAD8470028E0D13E44BA44D4
:1027E000ED1BDAE773B5066804463046FFF7B7FC21
:1027F0001546024629463046FFF7B1FC801ACDE95E
:1028000000202046D4E90431FFF7BEFF02B070BDBE
:102810002DE9F041436805461B68006886B098477B
:10282000044628B92846FFF747FD28B16FF0830416
:10283000204606B0BDE8F08108266B6805F1080760
:102840000096D3F804803A46234629692868C04791
:102850000028EBD1394628462A69FFF7FFFC0028FB
:10286000E4D12846FFF761FC04460028DED12B7B2B
:10287000012B24D1014603AA2846FFF74AFE04464D
:102880000028D5D1059B2A68C3F1FF23D26803F540
:102890007F03F8331344CDE90063324628462B69A1
:1028A0006969FFF771FF04460028C1D16B7B284698
:1028B000AB7302232B73FFF763FD0446B8E7022BCB
:1028C00018BF6FF08304B3E710B586B0002103AAE8
:1028D0000446FFF7F2FD60B92068049A059BD11801
:1028E000C36820465B1ACDE90023D4E90431FFF721
:1028F0004BFF06B010BDF0B504460D4687B009B9D0
:102900004369136029462046FFF702FC0146D0B90F
:10291000D4E904768DB90C2200212068FFF71FFC52
:1029200005FB02220832801ACDE900203B463146E1
:102930002046FFF729FF07B0F0BD204603AAFFF7A6
:10294000BCFD014610B16FF08300F4E7204603AAF6
:102950000396FFF7DDFB0028F5D1012DDBD00C231A
:1029600014226B430C3B019331463B4620460092B8
:10297000FFF70AFF0028CED0DDE7814206D8401AD3
:1029800090422CBF00206FF0860070476FF08600E9
:10299000704700F10C03984202D16FF08B00704732
:1029A00010F8012B002AF6D000207047F0B503681C
:1029B0000446A3F2F233A7B0032B00F21881DFE83C
:1029C00003F002569EA10023C269169300F11C0376
:1029D000002A35D00421E26A04F12C03002A3BD0FE
:1029E00004222369042B40D101293ED1012A3CD184
:1029F0000021606806AA05F0F1FA042835D1A26822
:102A0000069B002A2ADB022B18462ED8B2F5807FBF
:102A10002BD1216A16AA03F0BFF930BB0146236A05
:102A2000606816AA05F0E4FA002066E00029D2D01A
:102A300053F8040D0A4601390028F7D01146CAE7B9
:102A40000321F5E7002ACCD053F8045D1046013A83
:102A5000002DF7D00246C4E70322F5E703F1080092
:102A60000228069001D9022BD3D9012045E0C26982
:102A700000F11C033AB30422E16A04F12C0371B3A0
:102A800004212369042BF0D1012AEED10029ECD1D5
:102A9000606816AA05F0A2FA0428E6D1A268169B7F
:102AA000002A1EDB022B1846DFD8B2F5807F1FD02C
:102AB000DBE7002AE0D053F8040D1146013A002864
:102AC000F7D00A46D8E70322F5E70029D9D053F812
:102AD000045D08460139002DF7D00146D1E70321F6
:102AE000F5E703F1080002281690BED9022BBCD8E6
:102AF00003F08AF9003818BF012027B0F0BD02F0BA
:102B000065FC91E700253C22294607A8CDE902553E
:102B1000CDE90455069513F0DEFB3C22294617A8A3
:102B2000169513F0D8FBE269019504F11C0302B37A
:102B30000426E26A04F12C033AB30425731E012B28
:102B400093D8012D91D80423002160680DEB030276
:102B500005F044FA04281AD06FF08000CDE7002E6B
:102B6000E7D053F8041D3246013E0029F7D016463F
:102B7000DFE70326F5E7002DE0D053F8041D2A46D1
:102B8000013D0029F7D01546D8E70325F5E7022EC9
:102B900022D16669402E27D806AF33463A46012136
:102BA000606805F01BFA8642D6D1CDE9027602A90B
:102BB000A5B1236A402BCFD816AACDE904230198EA
:102BC00004AA03F06EF8DDE90423054600216068DD
:102BD00005F00EFA284690E70021E9E72A46019819
:102BE00003F05FF80546F5E76FF0890085E76FF0C1
:102BF000850082E708B503F0CDF8002814BF6FF018
:102C00009200002008BDCA0448BF41F480618B04D3
:102C100048BF41F40061016170470000611B000082
:102C2000850B0000410B0000751B0000791B0000A4
:102C30000100000002000000040000005B494E4655
:102C40005D5B43727970746F5D200050726F7669BE
:102C500073696F6E696E6720656E74726F7079202C
:102C6000736565642E2E2E20001B5B303B33326D66
:102C7000636F6D706C6574652E1B5B306D0D0A00A3
:102C80005B4552525D5B43727970746F5D20556E87
:102C9000737570706F727465642072657175657399
:102CA00074210D0A004D62656420544C5320332E6C
:102CB000352E32004372656174696E6720616E2043
:102CC000656D7074792049545320666C6173682077
:102CD0006C61796F75742E0D0A00437265617469B9
:102CE0006E6720616E20656D707479205053206688
:102CF0006C617368206C61796F75742E0D0A000029
:102D00006FF47A72F0B5474B0446186003688DB0D3
:102D10001344042B08D8DFE803F003274867770043
:102D200003698668082B02D06FF0800559E0856939
:102D3000042DF9D10021406808AA05F04FF90828B0
:102D4000F2D12B460221606806AA05F047F9042853
:102D5000EAD1069B3046019363690093DDE90823BD
:102D600000F0DAFC05463CE00369082BDCD145693C
:102D7000042DD9D10021406808AA05F02FF90828B0
:102D8000D2D12B460121606805AA05F027F9042855
:102D9000CAD106AB0293236A0193059B0093A068F6
:102DA000DDE9082300F0CEFCDCE70369082BBBD18A
:102DB000076A0C2FB8D10021406806AA05F00EF969
:102DC0000828B1D1DDE9062308AE0096A06800F01E
:102DD000CDFC054628B901463B463246606805F001
:102DE00007F928460DB0F0BD0369082B9CD10021DE
:102DF000406808AA05F0F2F8082895D1DDE9082313
:102E0000A06800F0C3FCADE7056A042D8CD100F08A
:102E1000D0FC2B4608900021606808AA05F0E8F86D
:102E20000025DEE7101D002038B5074B02461D685F
:102E30000C460B466868012105F0D0F8844214BFA7
:102E40006FF08000002038BD101D00200B460449A3
:102E500010B40C6802460021606810BC05F0C8B8C8
:102E6000101D002010B5044C204600F09FF9034BC4
:102E7000383C5C6010BD00BF680C0020141D0020B1
:102E80002DE9F047DFF860A01F465346814688468B
:102E9000164600F0BBFA044600BB144DDAF80000F9
:102EA0002946C5E90498AE6100F0EEFC044678B905
:102EB000AE6ABE4215D3089BF61B9E4228BF1E4633
:102EC00005F1380031463844FFF7C0FF099B1E600A
:102ED00040F648020021054813F0FDF92046BDE800
:102EE000F0876FF08604F3E7141D0020300C0020FB
:102EF0002DE9F74FDDF830A08046BAF5006F0F4698
:102F000091469B4668D8364E334600F07FFA044619
:102F1000002843D1334D30682946C5E90487C5F8F8
:102F2000189000F0B1FC044670BB2B6BDB0750D44B
:102F30000123C5E90BABD6F800B051462A480193EE
:102F4000FFF772FF0446F8B9019B264D1846244945
:102F5000C5F828A000F0D2F90446A8B9294630687F
:102F6000C5E90487C5F8189000F0D1FC044658B9AB
:102F70004A46404639461A4B00F0F2F90446E8B199
:102F80000021306808F0A2FE40F6480200211548F2
:102F900013F0A1F9204603B0BDE8F08F10F18C0FBB
:102FA000F2D1104C40F648020021204613F093F96C
:102FB000C4E90BAB02234FF0000BBEE7BBF1000FDF
:102FC00003D100F05FFA0446DEE7584600F0F3FB59
:102FD000F9E76FF08404D7E76FF08604DAE700BF03
:102FE000141D0020300C0020680C00202DE9F04753
:102FF000DFF844A01E46534681468846174600F037
:1030000005FA0446A0B90D4DDAF800002946C5E9D5
:103010000498AF6100F038FC044618B9AB6A7360DD
:103020002B6BB36040F648020021044813F053F9BB
:103030002046BDE8F08700BF141D0020300C0020A2
:103040002DE9F843DFF86080074643460E46914677
:1030500000F0DCF9044600BB144DD8F80000294606
:10306000C5E90476C5F8189000F00EFC044670B966
:103070002B6BDB0714D44A463846314600F0DCF9A6
:10308000044620B9D8F8000000F095FB044640F64D
:1030900048020021054813F01EF92046BDE8F883D8
:1030A0006FF08404F3E700BF141D0020300C0020F3
:1030B000F0B500250A4CD4E910768E4208BF87424D
:1030C00005D1A66C964202D100201D60F0BD0135ED
:1030D0000B2D04F12004EED16FF08B00F6E700BF5A
:1030E00078140020002070B5DEB0029000F068FC7B
:1030F000044618BB02A900F058FC0446F0B91021A0
:103100001E4800F0C9F90446C0B91D4D029E28466C
:1031100000F020FA044678B94FF4B47205F12801A2
:1031200003A85D9613F0B2F84FF4B672284603A9CF
:1031300000F09EFA044620B100F0F8F920465EB097
:1031400070BD00F0F3F904460028F7D195F89161BD
:103150002B4600904FF4C8720021701C08F058FDF7
:1031600004460028EAD195F89031029885F891310B
:1031700085F8906100F02DFB0446DFE7200C00206D
:103180007814002010B5084C4FF4CC722046002172
:1031900013F0A1F80123A4F8903184F82830BDE899
:1031A0001040FFF79FBF00BF78140020002270B5C9
:1031B000504E88B002AD04904FF4C8730120002136
:1031C000CDE90065CDE906220396ADF8142008F09C
:1031D0003DFD10B101238DF81430049B00220093B3
:1031E00002204FF4C8730021019508F02FFD10B1A3
:1031F00001238DF8153000F045FB044678BB102103
:103200003D4800F049F9044648BB06A900F0CDFB53
:10321000044638BB2946012000F0C7FB044608BB22
:10322000022007A900F0C1FB0446D8B9079A029B07
:103230009A429DF8143018BF0790012B03D000204C
:1032400003A900F0F4FA9DF81530012B03D00120FA
:1032500003A900F0ECFA00F069F9044628B1204611
:1032600008B070BD00F062F9F9E7039B049993F888
:103270002830012B1CBF01238DF8143091F8283021
:10328000012B1CBF01238DF8153040F20113BDF84E
:1032900014209A422AD09DF81430012B07D14FF404
:1032A000C8721448A6F8903112F0F0FF07E09DF8BC
:1032B0001530022B18D04FF48073A6F8903196F891
:1032C00091010021013008F001FD044610B110F118
:1032D0008C0FC4D1069800F07CFA04460028BED1B9
:1032E000044800F02FF9BAE70123D8E76FF0830410
:1032F000B5E700BF78140020200C002070B50D4603
:1033000048B300231C46154AD2E91016314304F194
:10331000010106D00B2919D01C46203223460C4649
:10332000F2E70B2900F1FF300FD020320028F5D151
:103330002346DC1C2046002108F0C8FC10B110F127
:103340008C0F01D100202C6070BD0A230028F0D022
:103350006FF08D00F8E76FF08600F5E77814002035
:103360002DE9F0471E4600238146884617468AB05D
:10337000244D02AC01930FCD0FC495E80F0084E8F3
:103380000F003A464846414601ABFFF791FE1E4DFD
:10339000824668B9019C202205EB44143034214652
:1033A00002A812F073FF20225146204612F093FF2C
:1033B00033687168DC1E05EB431343E9089805EB9D
:1033C00044131C463034102220469F6412F05EFFE6
:1033D000FFF788FE064688B1DDE90632134308D0C0
:1033E000019B202205EB431502A905F1300012F0E4
:1033F0004DFF20220021204612F06DFF30460AB01A
:10340000BDE8F087D83900007814002037B51D4694
:1034100001ABFFF74DFE044648B9019B0549DA1C94
:103420002A606868102201EB431112F02FFF20463A
:1034300003B030BDA8140020002330B58BB0019339
:1034400001ABFFF735FE0446B0B9019B0C4D2022BD
:1034500005EB4315294602A812F018FF2146202249
:10346000284612F038FFFFF73DFE044620B1202227
:10347000284602A912F00AFF20460BB030BD00BF5B
:10348000A8140020034B002193F89101013008F0AB
:103490001DBC00BF7814002030B587B004460D462F
:1034A0001422002101A812F016FF0023009385B317
:1034B0007CB34FF44072184B6846CDE90423174B98
:1034C0001749019308F032FB08BB40F2011168462E
:1034D000144A08F0E5FAA8B92B46224640F2032127
:1034E000684608F047FB68B90F4C6946224601A8B8
:1034F00008F066FB30B9684608F0F6FA38B1206883
:1035000008F014FA684608F0EFFA6FF0830007B08D
:1035100030BD6FF08600FAE70002500500248000FD
:10352000090100085C81FF7F1C1D002008B5044BC9
:10353000186808F0FBF9002818BF6FF0830008BD79
:103540001C1D002000F11C010C22014812F09EBE3F
:10355000201D00201FB50822184904460DEB02006B
:1035600012F094FE042216490DEB020012F08EFEBA
:10357000029B039A013342F10002CDE90232134368
:1035800014D008220D480DEB020112F07FFE042238
:103590000B480DEB020112F079FE0C22074904F1F1
:1035A0001C0012F073FE002004B010BD019B01331B
:1035B0000193002BE5D16FF08300F5E7201D00207B
:1035C000281D0020F0B5054689B010980F9FCDE961
:1035D0000012CDE904700E98119ECDE902300C481E
:1035E00006960C230B49006805F11C0208F0BCF993
:1035F000044650B9316810221039316028463944E8
:1036000012F044FE204609B0F0BD6FF08304F9E7E4
:103610001C1D0020000250052DE9F0411D460F46FB
:103620009046044688B00E9E01461022981912F06A
:103630002DFE119B10360693109BCDE90256059383
:10364000CDE900780F9B0848049308490C2304F146
:103650001C02006808F0D6F9002818BF6FF094002B
:1036600008B0BDE8F08100BF1C1D0020000250051D
:1036700000B58BB009AB06931023CDE904030023FA
:10368000CDE90012CDE9023300F11C0208480C23F9
:103690000849006808F068F938B9099B102B18BF71
:1036A0006FF083000BB05DF804FB6FF08300F9E767
:1036B0001C1D00200002500500B58BB009AB06931D
:1036C0000023CDE904331023CDE90012CDE9020334
:1036D00000F11C0207480C230749006808F092F922
:1036E000099B184314BF6FF0940000200BB05DF8E5
:1036F00004FB00BF1C1D00200002500500F000B8B4
:1037000008B5FFF7AFFB30B100F061F818B9BDE8BC
:103710000840FFF7A7BB08BD30B419460446104661
:10372000DDE9022350EA010505D0072B07D8224620
:1037300030BCFFF7DDBB6FF0860030BC70476FF028
:103740008500FAE770B4194604461046DDE90332F5
:1037500050EA0106059D05D0CDE90325224670BC3F
:10376000FFF78EBB6FF0860070BC7047194610B42F
:103770000446104650EA0102019B03D0224610BCC9
:10378000FFF734BC6FF0860010BC7047194652EA50
:10379000010310B50446104608D02246FFF750FC3E
:1037A00010F1950F08BF6FF0830010BD6FF0860019
:1037B000FBE70020704710B50446FFF763FE0146A3
:1037C00020B92046BDE8104008F080BA10BDFFF7D0
:1037D000D9BC002337B5054601A90120019300F0AB
:1037E000E4F868B16FF08304204603B030BD0120D7
:1037F00000F0E6F804460028F6D1019B013301935E
:10380000019BAB42F3D3022001A900F0CEF804469D
:103810000028E7D1019BAB42E6D2022000F0D0F8AD
:1038200018B9019B01330193F4E70446DCE770B556
:1038300051F82060DCB0CB684FF4B47205460C46FA
:1038400001A806F128015B9312F020FD4FF4B67237
:10385000304601A9FFF730FF80B1236983B14FF4EF
:10386000B672304601A95B93FFF726FF00280CBF14
:10387000032301232C4423725CB070BD0223F9E7BB
:103880000123F7E700207047002270B58EB005AB2A
:10389000019301F11C030C460093114640F61C03F2
:1038A000064608F0D3F968BBD4E90423CDE9082320
:1038B000A3690422069607A90BA808AE0793059DE5
:1038C00012F0E4FC314608220CA812F0DFFC0C21B7
:1038D0000BA8FFF7E1FDA8B94FF402620C3D04F11B
:1038E0002803CDE90132204604220396009506A95B
:1038F000FFF792FE10B9089B9D4205D0FFF716FE18
:103900006FF083000EB070BDFFF710FEFAE72DE9EF
:10391000F041D1E904238CB0CDE906238B69042260
:103920008E6A049005460C4609A805A906AF0593C2
:1039300012F0ACFC082239460AA812F0A7FC0C21B0
:1039400009A8FFF7A9FD0146E0B92046FFF702FEEE
:103950000146B8B94FF4026206F1100804F12803D9
:10396000CDE90132204604220397CDF8008004A956
:10397000FFF728FE10B9069B984507D0FFF7D6FD44
:103980006FF0830108460CB0BDE8F081FFF7CEFD73
:1039900001460028F6D1009004F11C03284606F1E8
:1039A0001C0208F035F90146ECE70A4608B5042187
:1039B00008F0BAF9002814BF6FF08300002008BD9A
:1039C00008B508F099F9002814BF6FF083000020B3
:1039D00008BD000000000000000000000000000022
:1039E00000000000000000000000000000000000D7
:1039F00000000000000000000000000000000000C7
:103A00000C4500000100000088BC010060B30020EC
:103A10004F00000050BC0100401D00200E000000BF
:103A200040BC0100200C0020040000009CB40020D9
:103A300023070000781D00207A250000300C0020AC
:103A400044040000000C00200800000003F0E2BA6B
:103A500008B572B61E4A1F4B9A601F4B83F3098844
:103A60001E4B83F30A8883F30B881D4B16A1D1E903
:103A70000001C3E9000100F05DF81A4B1A498B42BE
:103A800012D30020194B1A498B4218D304F042FA82
:103A9000186850F82240586840F82240013298686F
:103AA0008242F5D30C33EAE70022F8E71C6844F8B9
:103AB000220001325C68A242F8D30833E4E7002216
:103AC000F8E700BFAFF30080A5EDF5FEA5EDF5FE2C
:103AD0000000000000ED00E0F80B002000040020D2
:103AE000F80B0020083A00002C3A00002C3A0000A5
:103AF0004C3A0000EFF30880EFF309812DE9F00F55
:103B00006B46724600F004F908B0FFF79FFFFEE72E
:103B10004FF47F03D3F83021D3F83431072A05D18D
:103B2000023B032B02D8024AD05C7047002070474A
:103B3000EA760000694A08B5D2F8D03043F00203B3
:103B4000C2F8D030FFF7E4FF58B1654BD3F8202A14
:103B50003AB90D21C3F8201A0121C3F81C19C3F882
:103B60001C290022D30003F57F03D3F80013013191
:103B700007D0D3F800130132D3F80433202A0B60A6
:103B8000F0D1FFF7C5FF002840F0A080FFF7C0FF8D
:103B900040B1544B544AC3F830254FF05023012212
:103BA000C3F858254FF47F03D3F83021D3F83431CC
:103BB000072A09D1023B032B06D84C4AD35C1BB120
:103BC00000224B4BC3F84C25FFF7A2FF50B14FF03A
:103BD0005023D3F80024D10742BF0022C3F8142198
:103BE000C3F818214FF47F03D3F83021D3F83431D0
:103BF000072A09D14FF05023D3F80024D20744BF3D
:103C00006FF00102C3F80024FFF782FF18B16522AC
:103C1000334BC3F80C274FF47F03D3F83021D3F88C
:103C20003431072A16D1324BD3F82034002B11DA65
:103C30004FF050230322C3F8182501229A60D3F8CD
:103C40000421002AFBD00022C3F804210122DA60FB
:103C5000C3F818254FF47F03D3F83021D3F834315B
:103C6000072A23D1023B032B02D8224AD35CEBB1B3
:103C70007E221B4B1B49C3F80C27C3F83C297F232A
:103C80001D4AC2F818310023C1F8043EC1F8083EAD
:103C900001F54821C1F81031C2F82431C2F82C31A5
:103CA00002F5FF1202F58052C2F8A0320B4AD2F898
:103CB0008C3043F44063C2F88C30104A104B1168CA
:103CC000C3F84415D269C3F84C2508BD2922044B1A
:103CD000C3F80C270322C3F83C2757E700ED00E0A8
:103CE00000400050009003504400EFBEE676000014
:103CF00000200350E2760000002000500080FF000A
:103D0000006000507C22014912F0C0BA3CBA002089
:103D100038B51D46364B374C5B68C3F30803236048
:103D2000EFF30383C4E901206365C2F3801302F05B
:103D30000C020C2AE16036D10BB9EFF38981202205
:103D40002D48216112F0A2FA25B1202229462B48E4
:103D500012F09CFA264B9A6AA265D96AE165986BC3
:103D6000206602F400406066586BA06602F0800096
:103D7000E0669A62D962D3F8E42021482267D3F83A
:103D8000E810616702F04001A167C3F8E4200E214A
:103D900001F0D4FD2268D31E042B1CD8DFE803F009
:103DA000090F1215180013B9EFF38881C7E7014610
:103DB000C5E70C211348BDE8384001F0BFBD122112
:103DC0001148F8E70B211148F5E70D211048F2E7FB
:103DD0000E211048EFE70F2A98BF1421BDE83840A4
:103DE00089BF25210C480D48103A02F0D9B800BF10
:103DF00000ED00E03CBA002050BA002070BA00206C
:103E0000EE760000FC760000087700001A770000CC
:103E100025770000327700004077000054770000DB
:103E20002DE9F34106460F460C4DD5F82C80C047CE
:103E300010F00104FBD1394630466B69984740B910
:103E4000C047C307FCD42B6A019302B0BDE8F04120
:103E50001847204602B0BDE8F08100BF7C77000023
:103E600010B5094C0020A3689847236902209847A1
:103E7000A46A4FF4E1310120A0472346BDE8104079
:103E800001211520184700BF7C770000064B82B047
:103E90001868002382B262F30F03000C60F31F4323
:103EA000184602B0704700BFBC770000014B18698C
:103EB000704700BF68B30020014B5869704700BFCE
:103EC00068B3002010B5044C204600F0B5FE002079
:103ED00084F8240010BD00BF68B3002038B50C4D35
:103EE0000C4695F8243013B94FF0FF3038BD0A4620
:103EF0000146284600F024FF064B984205D00B3BB4
:103F00009842F1D100206C61F0E76FF00100EDE71D
:103F100068B300200B00AD0BF0B51B4E054696F8BC
:103F200024300C4691B01BB94FF0FF3011B0F0BDFA
:103F300000F06043B3F1005F21D100230A4601463F
:103F4000304600F007FC114B98421AD00B3B9842C8
:103F5000EAD1346111E0A71B402F28BF4027A919DF
:103F60003A46684612F092F939466846FFF7D4FFA0
:103F70000028DBD14036B442EDD80020D6E7002639
:103F8000F9E76FF00100D1E768B300200B00AD0B3B
:103F9000C3B2012B30B540F0A2804DF6C023994248
:103FA00076D028D8B1F5615F75D011D8B1F5965F9C
:103FB00073D008D8B1F5966F71D0B1F5166F71D086
:103FC0006FF0070063E0B1F5165FF9D14B4B33E0BA
:103FD00047F61223994268D007D8B1F5964F67D0BB
:103FE000B1F5E14FECD1464B26E0B1F5164FE7D1E4
:103FF0004FF41D0320E0434B99425BD011D8B1F53B
:10400000E13F5AD007D8B1F5614F59D0B1F5963F8D
:10401000D6D13D4B10E0B1F5613FD1D14FF06C737B
:104020000AE0B1F5612F4ED0384B99424ED0B1F530
:10403000E12FC5D14FF0E86310F4E06F52D110F4D6
:10404000404403D0B4F5804F4FD11024304900F4E0
:104050004052B2F5805F8D8B3BD0B2F5005F3BD014
:10406000002A45D110F4403003D0B0F5403F42D192
:1040700001204A7622432A430876024300200B623D
:104080008C768D830968C1F82435C1F86C2530BD64
:104090004FF46503D0E71F4BCEE71F4BCCE74FF43F
:1040A0009E23C9E74FF41D23C6E74FF40003C3E77F
:1040B0001A4BC1E74FF08063BEE74FF0EB73BBE7ED
:1040C0004FF46B03B8E74FF07063B5E74FF08053E0
:1040D000B2E700250E22C5E74FF48075FAE76FF0CE
:1040E0000300D4E76FF00800D1E76FF00A00CEE7D5
:1040F0006FF00900CBE76FF00B00C8E70050270016
:1041000000C0750090D0030000903A0140420F00BB
:1041100068B3002000F03A0000B0130000A04E0089
:1041200010B58EB02822002104A812F0D4F84FF068
:10413000FF33CDE90033CDE902334FF0EB7368462E
:104140000A930723104C8DF83530D4E9021201F0A0
:1041500013FC01460022204600F04EFA0B4B984219
:104160000ED1DDE90B0100230A9AA061226201222F
:104170001846C4E90433A18384F824200EB010BD8E
:104180006FF00100FAE700BF68B300200000AD0B3C
:10419000036803F01F025B09026004D0012B03488F
:1041A00018BF002070470248704700BF00288450A5
:1041B0000025845030B51546D0F8002285B022F095
:1041C0002002C0F80022114A0C46C0F8082301F072
:1041D00023FC002104F14C03A1602161D3E8EF0F1F
:1041E00020F47F0020F47040C3E8E20F002AF5D1EC
:1041F0001022684612F06FF8042368468DF80030EC
:104200000195D4E90013984705B030BD10020A00AB
:10421000044B054A1B68B3FBF2F35843034B43F0CE
:104220000103184764B3002040420F00C07700002C
:1042300007B5019001A8FFF7ABFF019B00EB8300DE
:10424000D0F80022034B1340C0F8003203B05DF8F1
:1042500004FB00BFF0F0FCFF2DE9F04F804690F822
:1042600004A05020664F0E4600FB0A70416885B0DE
:1042700049B113F0020304D0836B002B00F0B2802D
:104280000123009300E000914FF0500909FB0A73ED
:10429000DB6CD90600F1A6804FF0010BB318029336
:1042A000029BB34200F0A78006F06043039398F8A6
:1042B0000450D8F8004009FB05739A6B9AB9039B28
:1042C000B3F1005F40F09980019200F073FD09FBAB
:1042D0000572D16C204601F0010101F06BFB28B999
:1042E00000F070FDE3E701230193EEE7516C3346E4
:1042F0000029BCBFD4F84C155164019A42B109FBA6
:1043000005713078D1E90E23D054D1E90E3213442F
:104310001BB1C4F84435C4F848B50022C4F82021C4
:10432000D4F82011C4F85821D4F85811C4F85021F9
:10433000D4F850210822C4F80025009AE2B14FF4C5
:104340008003C4F80433C4F808B000F03BFD5023E8
:1043500003FB0A72516800294BD1D26C120748D571
:1043600003FB0A734C33D3E8EF1F21F00801C3E8C5
:10437000E21F002A36D0F6E7C4F808B0019300F037
:1043800021FD09FB0572D16C019B01F00101204662
:10439000019301F00FFB8446019BD4F84C05D4F83F
:1043A0004425BCF1000F0DD19342F0D005EB8505FB
:1043B00007EB0515D1B100F0FDFC2946204601F0C0
:1043C00070FBC2E705EB8505934207EB0515F1D1BC
:1043D0000028EFD100F0EEFC2946204601F061FBF9
:1043E00000F0F0FC074805B0BDE8F08FC4F80CB051
:1043F000E1E7013654E70448F5E70448F3E700BF76
:10440000B8BA00200800AD0B0000AD0B0400AD0BE6
:1044100007B5019001A8FFF7BBFE019B00EB8300ED
:10442000D0F80022044B134043F00303C0F80032DD
:1044300003B05DF804FB00BFF0F0FCFF07B501908E
:1044400001A8FFF7A5FE019B00EB8300D0F8002236
:10445000044B134043F00203C0F8003203B05DF890
:1044600004FB00BFF0F0FCFF2DE9F3470C4694F885
:104470003330054690F804800968002B36D150236C
:104480005A4F03FB0873DE6C46F00072DA644A1C74
:104490000AD001A80191FFF77BFE0123019A934006
:1044A00083600846FFF7B4FF6068431C01D0FFF744
:1044B000BFFE94F82C30012B18D1502303FB087356
:1044C000E06846F02066421CDE6401D0FFF7B0FED3
:1044D000A668731C0AD001A80196FFF759FE0123B4
:1044E000019A934083603046FFF792FF94F8327050
:1044F0003FB950223D4B02FB0833DA6C42F0807228
:10450000DA6494F82C6094F82D0094F82E90228EA2
:104510002B68D4F828A0324340EA09000243D4F8BB
:104520000CC0D4E9018EC3F824A5C3F86C254FB99B
:10453000012EC3F80C15C3F8148504BFC3F808E5B1
:10454000C3F810C5D3F8682503F26457012A08BFE1
:10455000DA60D3F86425012A0FD1082149F64046D4
:10456000C3F800155A603B68A3BB2B68D3F88024BE
:10457000C3F880240022C3F8002500212B6894F89A
:104580003520C3F81011D3F81001C3F82011D3F867
:104590002001C3F82411D3F82401C3F84411D3F83F
:1045A0004401C3F85811D3F8581143F307335201AB
:1045B000002BD2B214DB0E49C81880F80023012268
:1045C000580903F01F0302FA03F341F8203002B048
:1045D000BDE8F0870120FFF71BFE013EC3D1C4E711
:1045E000044903F00F03CA54F1E700BFB8BA002032
:1045F00000E100E014ED00E02DE9F3479046502281
:1046000090F804904E4C02FB09FA04EB0A070D46A1
:1046100097F84810064600297ED109EB890004EB83
:10462000001011F058FE2B69AA6944F80A306B6932
:10463000BB6302B1013A502303FB0943DA632A6AE0
:10464000042A81BFEA699A610022DA6195F8343060
:10465000B8F1000F34D083F001073F0233B150238B
:1046600003FB0943DA6C42F00102DA64502303FBD6
:1046700009440123C4F8048084F848303468D4F82D
:104680004C21FAB929463046FFF7EEFE08220023F6
:1046900034688DF80730C4F800250DF10702C4F81E
:1046A0004425C4F8483501230A25A360E360D4F803
:1046B00058319BBB0120FFF7ABFD013DF7D125E051
:1046C0004746CBE708224FF06409C4F80025636031
:1046D000D4F84431F3B9D4F82431DBB90A20FFF718
:1046E00097FDB9F10109F3D14B460022C4F84C21E2
:1046F000D4F84C11C4F81021D4F81011C4F8442196
:10470000D4F84411C4F80025002BBBD10D4802B0E9
:10471000BDE8F0870123E8E70B48F8E70023C4F879
:1047200020319845D4F82021C4F80035074B08BF44
:1047300000231F4333680648C3F80473E7E700BF4C
:10474000B8BA00200100AD0B0500AD0B10020A0045
:104750000000AD0B2DE9F04784460F469E461646F5
:104760000579002A51D04FF0500ADFF8AC80D0F81C
:1047700000900AFB058ADAF8044074B96BB9DAF8DC
:104780002C50002D43D1CAF82C20FFF765FD0446BC
:10479000CAF82C502046BDE8F0871EF0030F07D062
:1047A000734632463946BDE8F0476046FFF754BDD0
:1047B00007F06043B3F1005F4FF0500414D104FBE5
:1047C000058400F0F7FAE26A1AB1144C00F0FAFA24
:1047D000E0E7C4E90A7605EB8505484608EB0511D4
:1047E00001F06AF90E4CF1E704FB0584A36B83B179
:1047F00000F0E0FAE36A002BE7D1E36C012243F01A
:104800000203C4E90A76E364E5E7064CC2E7034C19
:10481000C0E7054CBEE700BFB8BA00200B00AD0BE7
:104820000000AD0B0600AD0B0A00AD0B2DE9F843FF
:1048300050230679284D046803FB0653D4F804730B
:10484000DA6AC4F8087322B92448C4F80473BDE8CE
:10485000F88306EB860005F14C024FEA001802EBE4
:104860000012D2E8EFCF4CF0080CC2E8E0CF0028ED
:10487000F7D10122E26031B3D96C01EA020949465D
:10488000204601F097F80028FAD000F093FAB9F129
:10489000000F1CD1D4F8203153B10123E360D4F8C8
:1048A0005831002BFBD0204605EB080101F0F9F848
:1048B00000F088FA0023C4F82031D4F820215022D7
:1048C00002FB0655EB620648C4F80473BFE7D4F850
:1048D0005831002BE7D1EBE7B8BA00200500AD0B4B
:1048E0000000AD0B2DE9F04107793D4E07EB870342
:1048F0001B0103F14C0504683544D5E8EF2F42F461
:104900008050C5E8EC0FBCF1000FF6D1D00462D4A2
:104910004A0705D5502202FB07629269002A5CD043
:10492000304AC4F808230822C4F800250022C4F83D
:104930001021D4F81001C4F84C21D4F84C01C4F86B
:1049400044210803D4F844218A0302F4804200F48D
:1049500000504903024301F400410A43D5E8EF1F28
:104960001143C5E8E01F0028F8D14FF0500808FBBC
:104970000768D8F80820BAB9D8F8042062B9D5E891
:10498000EF3F23F47F0323F47043C5E8E23F002A9E
:10499000F5D11548BDE8F081F018032101F017F8B2
:1049A000D8F80830002BEAD0502303FB0763DB6CF8
:1049B000DB0401D40D48EDE7D4F84C310BB90123E9
:1049C0002360502303FB07635B68002BF2D0054B89
:1049D000C4F80433EEE70648DCE70648DAE700BF30
:1049E000B8BA002010020A000200AD0B0000AD0BA7
:1049F0000B00AD0B0800AD0B2DE9F74F056801F07A
:104A00006043D5F804A3B3F1005F90F804908846A2
:104A10001746C5F808A340F08B805023464E03FB91
:104A200009639A6852B15B68002B6CD1D5F81021EC
:104A3000002A68D0C5F81031D5F81031502404FB95
:104A40000964E269C4E90287002A3ED009EB890BB8
:104A50004FEA0B139742019306EB0B1B23D2002660
:104A60003A46A1694046C4E9026611F00FFCE269CA
:104A7000A069D21BC119E26111F0D2FB636863B176
:104A800058463A46414600F0B3FFE36C980404D51B
:104A9000324659462846FFF78DFB2848C5F804A33F
:104AA00003B0BDE8F08FA169404611F0EFFBE36968
:104AB00063620023E361D5F80433590717D56368AF
:104AC000ABB10621584600F082FF502303FB096377
:104AD000586ADA689968DB6C121A0144C5F8341513
:104AE000C5F83825DA04D8D501232B60D5E7144B57
:104AF000019A1344D3E8EF1F41F40021C3E8E21FF9
:104B0000002AE2D0F6E7502303FB096633698BB92C
:104B1000F36CC5F834855B04C6E90487C5F83875BD
:104B2000BBD5D5F8003243F02003C5F80032B4E716
:104B30000448B3E70448B1E7B8BA00200000AD0B61
:104B400004BB00200A00AD0B0B00AD0B50232DE978
:104B5000F041354D90F80480046803FB0853DB6C8A
:104B6000D4F8000203F48223B3F5805F5AD1D4F85D
:104B70000463C4F8086309B9830648D4D4F8003242
:104B800023F02003C4F800324FF4842308EB88019B
:104B9000090101F14C072F44D7E8EF0F1843C7E88C
:104BA000EC0FBCF1000FF7D122B9502303FB0853DF
:104BB0005B68A3BB1D4BC4F8083301236360D4F8C2
:104BC0004431002BFBD0502303FB0853DA6C12F462
:104BD00000421FD1DA61204600F01EFF502303FB84
:104BE00008550023AB602B61D7E8EF3F23F47F0328
:104BF00023F47043C7E8E23F002AF5D126F42026CB
:104C000026F404760A48C4F80463BDE8F0814FF442
:104C10008033BBE72046294400F010FFDBE7012387
:104C20006360EFE70348F0E7B8BA002010020A001B
:104C30000000AD0B0500AD0B2DE9F04103682E4AD5
:104C40000579C3F8082343F30733002B04460DDB33
:104C500001215A0903F01F03994002F12003274A5A
:104C600042F82310BFF34F8FBFF36F8F012220460E
:104C70001146FFF76BFF01212046FFF7D7FD2368A0
:104C8000227950241E49D3F80C0504FB0212D46C7F
:104C9000D3F81485E201D3F80865D3F8107509D567
:104CA0004FF0FF32C3F80C25C3F81425C3F80825CC
:104CB000C3F81025A20115D5431C01D0FFF7BEFB98
:104CC000B8F1FF3F02D04046FFF7B8FB200109D5FD
:104CD0007A1C02D03846FFF7B1FB731C02D0304675
:104CE000FFF7ACFB5023002203FB0513DA6483F8C3
:104CF00048205A60BDE8F08110034A0000E100E05E
:104D0000B8BA002010B550240279094B04FB0233D5
:104D10005B684BB90368D3F810213AB111B1D3F8ED
:104D20003C350B60034810BD0348FCE70348FAE735
:104D3000B8BA00200000AD0B0800AD0B0B00AD0BA6
:104D4000F7B505461646FFF757FE164B0446984240
:104D500022D1032128462F79FFF7C4FD124B984238
:104D600001D0A0421BD15022104B02FB07335B68DD
:104D700093B90C4C284601A9FFF7C4FFA042F9D112
:104D8000019BB34207D301222846114603B0BDE878
:104D9000F040FFF7DBBE064C204603B0F0BD0446F2
:104DA000FAE700BF0000AD0B0B00AD0BB8BA002056
:104DB0000800AD0B72B6024A1368013313607047E6
:104DC00008BB0020034A1368013B136003B962B6B5
:104DD000704700BF08BB002000487047F477000010
:104DE00008B500F01FF8034B984214BF6FF00400A1
:104DF000002008BD0000AD0B0022034BC3F8842542
:104E0000C3F80425704700BF00900350044AD2F84D
:104E10000034DB07FBD50160BFF35F8F704700BF35
:104E20000090035008B5C0F30B0383B90222094B6D
:104E3000C3F88425C3F804254FF0FF320260D3F88D
:104E40000024D207FBD5FFF7D7FF034808BD03486E
:104E5000FCE700BF009003500000AD0B0A00AD0B53
:104E6000F8B51546012206460F460024094BC3F843
:104E70008425C3F80425A54203D1BDE8F840FFF717
:104E8000BBBF57F8241006EB8400FFF7BFFF0134C7
:104E9000F1E700BF00900350003A18BF012200392B
:104EA00018BF012103688900074841EA42011863DD
:104EB00059605A6842F001025A60BFF34F8FBFF346
:104EC0006F8F0020704700BF04AAFF000722024B2B
:104ED000C3F80423704700BF00300050084BD3F8DC
:104EE0000001D3F80421003818BF01200AB140F0B6
:104EF0000200D3F808310BB140F00400704700BF46
:104F0000003000500022074BC3F80021D3F80011F5
:104F1000C3F80421D3F80411C3F80821D3F80831E9
:104F2000704700BF0030005000231720094A03F5E6
:104F3000C0710133402B42F82100F8D10023172023
:104F4000044A03F5E0710133402B42F82100F8D107
:104F5000704700BF0030005010B59DF80840800B2E
:104F600043EA0423064C890B43EA0213884200D922
:104F700010BDC2B202F5C07244F822300130F5E72C
:104F80000030005010B59DF8084000F1604043EA41
:104F9000042301F16041074C400B490B43EA021323
:104FA000884200D910BDC2B202F5E07244F8223046
:104FB0000130F5E700300050C0F30D03C3F5804326
:104FC000B3FA83F3C3F11B03064AC0F38730DBB2A5
:104FD00040F4807043F48073C2F80005C2F80435D1
:104FE000704700BF00300050430301481844704729
:104FF000FF1FF81F044B090241F0300100F500705B
:1050000043F82010704700BF00300050034B0902E6
:1050100000F5007043F82010704700BF00300050CA
:1050200008B5FFF75BFF044B202118600348BDE87B
:10503000084000F083BC00BFD4C500200C780000FD
:105040000422014911F022B9D4C5002010B502F0A4
:105050001BFA044628B906F083FE044618B145F24F
:105060002354204610BD00F003FE58B932210B48EE
:1050700000F064FC00F02CF80028F0D10A21084868
:1050800000F05CFC074AD36823F008031B041B0CE8
:1050900043F0BF6343F40033D360E2E72C780000B1
:1050A0005E78000000ED00E008B500F075F9BFF390
:1050B0004F8F0549054BCA6802F4E0621343CB6089
:1050C000BFF34F8F00BFFDE700ED00E00400FA05DD
:1050D000002130B5ADF5177D3C2217A8169111F0CF
:1050E000FAF8374B02AA03F1080514461868596804
:1050F000083303C4AB422246F7D118689B884FF4AB
:10510000E07200212060A38026A811F0E4F800F0EE
:10511000AFFD20B12B4814F055F82B4C1FE002A92D
:105120000D2226A806F03EFE014618B1274814F0CD
:1051300049F813E006A9402201AB26A806F078FE44
:10514000044626A806F05EFE014614B9019D402DD6
:1051500009D02146019A1E4814F034F81D4C20460F
:105160000DF5177D30BDE8B9022006A900F092F8D0
:1051700004460028F3D104200EA900F08BF8044661
:105180000028ECD101462A4606A811F0A4F82A46C8
:1051900016A906A813F09FFF044628B10E4814F084
:1051A00011F8DBE70D48C2E7022000F06CFD20B1EA
:1051B000042000F068FD0028D1D10948ABE700BF0A
:1051C0009179000068780000FE9AFEFF997800004F
:1051D000C4780000FD9AFEFF38790000FF780000D7
:1051E0006C790000F0B585B004460E4617461D46A2
:1051F00000F049FDA0B10C9B2A4603930B9B4FF492
:105200008071CDE9017320460A9B009606F034FEBA
:1052100020B10146034813F0D5FF034805B0F0BDA7
:105220000248FBE79F790000FC9AFEFFFF9AFEFF11
:10523000154A431C1549C2F80035C300C95801314D
:1052400004D00023C2F800350120704703F57F0326
:1052500003F504431B680133F3D100010C4A00F548
:105260007F0303F5084302441968013104D000228A
:10527000054BC3F80025E7E704339342F4D100203F
:10528000014BC3F800057047009003500484FF00F1
:105290001088FF0038B56FF003020D460B460B492E
:1052A000044606F0E7FD48B9601C6FF003020849A8
:1052B00005F11003C0B206F0DDFD28B1024621461B
:1052C000044813F07FFF044838BD00BF00548450E9
:1052D00010548450E5790000FE9AFEFF024B1860DE
:1052E000024B002019607047DCC50020D8C50020A3
:1052F00013B5274C426923685A6282699A62C2696F
:10530000DA62026A1A63426A5A63826A9A63C26AFA
:10531000DA63026B1A64426B5A60826B9A60C26BEA
:10532000DA60026C1A61426C5A61826C9A61C26CDA
:10533000DA61026D1A62826D5A65C26D9A65026FFA
:10534000DA65026E1A66826E5A66426F9A66EFF3EB
:1053500088825A64EFF389829A644268DA64EFF3D0
:1053600094821A65026801A81A67FFF769FE23682C
:10537000019ADA6601221A70064B1C686408640000
:10538000204621462246234613F05BFF02B010BDA3
:10539000DCC50020D8C5002000B5A1B001A8FEF7EB
:1053A000B1FC029B63B15B060AD4019B23F00203AC
:1053B000052B05D1044B1B6813B101A8FFF798FF1B
:1053C00021B05DF804FB00BFD8C50020BFF34F8FAC
:1053D0000549064BCA6802F4E0621343CB60BFF391
:1053E0004F8F00BFFDE700BF00ED00E00400FA05AD
:1053F000F8B5C0F30B0686B920F47F650A4F25F097
:105400000F054418AC4201D83046F8BD2846FB6968
:10541000984728B905F58055F4E74AF2C536F3E711
:1054200043F65C26F0E700BFC87700002DE9F74F90
:10543000DFF864A08346DAF804300F461546984733
:105440000024164BC0F3410013F82090DFF8508081
:1054500004F18003AB4294BF80262E1BB6FBF9F209
:105460004146DAF8143004EB0B000192984700280B
:105470000EDB4146DAF81830019AE0199847002807
:1054800006DB3444A542E3D8002003B0BDE8F08F2A
:1054900043F65C20F9E700BFC87700001C7A0000E3
:1054A000A8D000202DE9F3471B4D81466B680F46BD
:1054B00014469847194BC0F3410013F820A0B9FBDC
:1054C000FAF60AFB16961EBB6CB1D5F81480B4FB35
:1054D000FAF509F578292A4639464846C047002892
:1054E00005DA43F65C26304602B0BDE8F0870AFBD9
:1054F00005F5641BF7D0012201A909EB0500C0479F
:105500000028EEDB224601A9781910F0BFFEEAE779
:105510004AF2C536E7E700BFC87700001C7A0000F2
:105520002DE9F04F861806F6FF7525F47F6525F006
:105530000F0585B0B5F5805F0446019104D943F6A7
:105540005C2005B0BDE8F08FDFF86C81D8F804303E
:1055500098470422594BC0F3410053F82070D8F803
:10556000143057480093FBB2B2FBF3F203A9009B3F
:105570009847039A531C023208BF01230393002D5E
:1055800034D024F47F6B2BF00F0BA5EB0B010BF544
:105590007820FFF72DFF0028D3D1B5F5BE7FAA46AE
:1055A00028BF4FF4BE7ADA4529D8B5F5BE7F5ED361
:1055B000FBB20427B7FBF3F7424D3A462946404871
:1055C000009B9847B6F5BE7F5CD8042203A93D48EE
:1055D00010F05CFE384B3A463A493B489B69984785
:1055E00008B18742ABD100F060FCAAE74FF48051CC
:1055F0004FF47820FFF7FCFE0028C2D0A1E70BF1A2
:1056000080039A452CBF4FF08009AAEB0B095FFA83
:1056100087F8B9FBF8F82B494246009B0BF5792037
:1056200098475E4516D909EB0B039C4212D2A3455D
:105630005A4638BF2246111BA2EB0B009E4294BF74
:10564000C2EB0602C2EB0302019B19441D4B184436
:1056500010F01CFE184B42469B691A490BF5782046
:10566000984710B180457FF46AAFCB449BE74FF475
:10567000BE724FF478214FF47920FFF7D7FE00284F
:1056800096D05EE7B4F5C07F9FD2B4F5BE7F2246C8
:1056900038BF4FF4BE72019B111BA2F5BE700B44C4
:1056A000B6F5C07F94BFC2EB0602C2F5C0721946C0
:1056B000284410F0EBFD88E7C87700001C7A000052
:1056C0007C910F00A8D000207C810F002DE9F041D3
:1056D0004F4F86B00020BB68984700286ED1042247
:1056E0006946FFF7DFFE0446002875D104224FF417
:1056F000BE700DEB0201FFF7D5FE044600286BD10A
:10570000444D009BAB4203D1019B013B033367D95E
:105710007B689847404BC0F3410053F82060042257
:105720004FF4805004A9FFF7BDFE0446002853D172
:10573000042241F27C1005A9FFF7B4FE04460028BC
:105740004AD1049B4FF48051AB424FF4782012D1E0
:10575000059B013B03330ED8FFF74AFE04460028A1
:105760003AD14FF480524FF478214FF47920FFF76B
:105770005DFE044630E0FFF73BFE044660BB014699
:105780008022264810F0A7FDF3B28026B6FBF3F680
:10579000DFF8888004F5782032464146BB698034C2
:1057A0009847B4F5805FF5D300F07FFB044698B9C5
:1057B000042202A90295FFF7B3FE10B143F65C2460
:1057C0000AE0012304224FF4BE7003A90393FFF7FC
:1057D000A7FE04460028F1D1204606B0BDE8F081BE
:1057E000042241F27C1005A9FFF75CFE0446002864
:1057F000F2D1059B5A1E033206D8019A934203D375
:105800000233E9D1012AE7D100F04FFBB1E700BF35
:10581000C87700001281DEC01C7A0000A8D00020EA
:105820001E2811D801230A4A8340134208D113F0DD
:10583000980F07D11D2807D1402300200B60704727
:105840002023FAE70423F8E74CF25A30704700BFF0
:10585000650F0040F8B543680C2B26D14B68042B2C
:1058600023D14FF0FF3304680E6821683360E1B143
:10587000A268D2B10623012001F031FCA8B9616809
:105880000B4BD3E9005CA9420AD3A26865448F1888
:10589000AF4205D8206810F0F9FC00203060F8BD58
:1058A0000130042803F10803EBD10220F7E700BF21
:1058B000287A0000436870B50C2B32D14B68042B5A
:1058C0002FD14FF0FF3306680C683068236050BB5F
:1058D0007268550903D0012D1CD14FF6FF7302F0F9
:1058E0001F02D340D90719D5B168072916D88B23D1
:1058F000CB40DB0712D57DB1012D16D10D4B03EB4B
:105900008203D3F8002222F0E04242EA0172C3F897
:1059100000220023236070BD074BF0E74FF0FF33F8
:10592000F8E70220F7E70320F5E70023803253F879
:105930002230FFDE0028845000258450FEF770BA24
:10594000012070476FF003007047002382B001937D
:10595000019802B070476FF003007047002382B0D7
:105960000193019802B07047022814BF6FF0030042
:1059700000207047FEF7D0BA30B501EB82029142A9
:1059800000D130BD51F8044B04F07F037F2B4FEA68
:10599000144408BF4FF0FF33032CF0D8DFE804F0C5
:1059A000020406080360EAE74360E8E78360E6E78D
:1059B000C360E4E70346D0F8580130B931B9D3F8F1
:1059C0002001003818BF012070470120704730B512
:1059D00004460D4685B010220021684610F07BFC7D
:1059E000D4E9001368468DF80050984705B030BDE3
:1059F0007FB504460E46154600211022684610F079
:105A00006AFC012368468DF80030CDE90165D4E9D0
:105A10000013984704B070BD10B50446FFF7CAF9EB
:105A2000D4F8583133B1D4F8043313F4800308BFE9
:105A3000C4F80035BDE81040FFF7C4B970B50D4695
:105A400004460522AA21D0F83C65A86910F043FC61
:105A50000522AB69C4F83435C4F838250022C4F8EF
:105A60001021D4F810110121E162D4F8101100299D
:105A7000FBD0C4F84C21D4F84C11C4F81021D4F850
:105A80001021D4F83C259642EA6109D15A1E04330C
:105A900012F8011FAA2903D19A42F9D10023EB6120
:105AA00070BDD0F8583133B1CB6CC3F30032DB0496
:105AB00058BFC0F80025704770B5CE6C0D4606F093
:105AC00001010446FFF776FF38B94FF4800346F032
:105AD0000406EE64C4F8043370BDD5E90A365AB141
